:100000000C942A000C9447000C9447000C94470071
:100010000C9447000C9447000C9447000C94470044
:100020000C9447000C9446080C9447000C9447002D
:100030000C9447000C9447000C9447000C94470024
:100040000C9447000C9447000C9447000C94470014
:100050000C94470011241FBECFE5D4E0DEBFCDBF16
:1000600010E0A0E6B0E0EEE9FBE102C005900D92E1
:10007000AC3FB107D9F721E0ACEFB0E001C01D9271
:10008000AD32B207E1F70E94A7080C94CD0D0C9495
:100090000000EFE9FFE03197F1F700C000008111A7
:1000A00002C0AA9801C0AA9A611102C0AB9801C00F
:1000B000AB9A42BBAC9A8FE19EE40197F1F700C086
:1000C0000000AC9808951F93CF93DF93EC01488113
:1000D000442361F010E060E081E00E9449001F5F6E
:1000E000FE01E10FF11D40814111F5CFDF91CF916C
:1000F0001F910895CF93DF9300D000D01F92CDB70A
:10010000DEB7462F68EE73E00E94520D605D698392
:1001100064E670E00E94520D605D6A836AE070E000
:100120000E94520D605D6B83805D8C831D8260E058
:1001300080E00E944900CE0101960E9463000F906A
:100140000F900F900F900F90DF91CF910895CF9265
:10015000DF92EF92FF92CF93DF936B017C010E94BD
:100160000D0CC62FDDEC6D9FD12D1124D695D695A3
:10017000D6954D2F405D60E081E00E944900DD0F83
:100180008D2F880F880FD80FCD1B4C2F405D60E05E
:1001900081E00E9449004EE260E081E00E94490057
:1001A00020E030E040E251E4C701B6010E94EF0CCC
:1001B0000E94080CCB016AE070E00E94520D482FAB
:1001C000405D60E081E00E944900DF91CF91FF90A7
:1001D000EF90DF90CF900895CF93DF9300D01F92E0
:1001E000CDB7DEB7462F9DEC899F912D11249695B2
:1001F00096959695292F205D2983990F292F220FF7
:10020000220F920F891B805D8A831B8260E080E051
:100210000E944900CE0101960E9463000F900F904A
:100220000F90DF91CF910895CF92DF92EF92FF92DE
:100230000F931F93CF93DF93CDB7DEB72A970FB6F7
:10024000F894DEBF0FBECDBF81E08093FC0085E057
:10025000E9E6F0E0DE01119601900D928A95E1F752
:1002600010920E0141E060E080E00E94490040E809
:1002700060E080E00E9449008AEC90E00E94630008
:1002800040EC60E080E00E944900CE0101960E94AF
:1002900063002FEF89E698E1215080409040E1F71C
:1002A00000C0000010E08091FD0080FD0BC0412FD8
:1002B000405460E080E00E9449008CED90E00E9494
:1002C000630009C040EC60E080E00E944900CE017C
:1002D00001960E946300CE9924C08FE39CE90197A8
:1002E000F1F700C00000CE991CC0812F90E0E1E042
:1002F000F0E0EC0FFD1FE80FF91F2081293340F4D7
:10030000E1E0F0E0EC0FFD1FE80FF91F2F5F208305
:1003100040EC60E080E00E944900CE0101960E941E
:100320006300CF9924C08FE39CE90197F1F700C0E7
:100330000000CF991CC0812F90E0E1E0F0E0EC0FCD
:10034000FD1FE80FF91F2081213340F0E1E0F0E0CC
:10035000EC0FFD1FE80FF91F2150208340EC60E0F7
:1003600080E00E944900CE0101960E946300CD9971
:100370009ACF8FE39CE90197F1F700C00000CD9977
:1003800092CFCD9BFECF133010F41F5F8CCF4981ED
:1003900050E04053510988EE93E0489F9001499FF7
:1003A000300D589F300D11248A8194E6899F200DCD
:1003B000311D11248B8190E0880F991FAC01440FEF
:1003C000551F440F551F840F951F820F931F2C81BB
:1003D000820F911D805D94419093100180930F01D5
:1003E0002091FE003091FF008217930709F04BC562
:1003F00041E060E080E00E94490040E860E080E089
:100400000E9449008EE690E00E9463002FEF84E393
:100410009CE0215080409040E1F700C0000040E89F
:1004200060E080E00E94490089E790E00E9463005C
:1004300040EC60E080E00E944900609165007091AE
:10044000660080916700909168000E94A70046ECCA
:1004500060E080E00E9449008CEE90E00E94630022
:1004600010E08091FD0080FD13C0123039F0412F63
:10047000405460E080E00E94490005C043EC60E029
:1004800080E00E9449008CED90E00E9463000FC064
:1004900040EC60E080E00E94490060912101709191
:1004A000220180912301909124010E94A700CE99FE
:1004B00085C08FE39CE90197F1F700C00000CE9959
:1004C0007DC0113039F120F0123009F068C045C00C
:1004D000C0902101D0902201E0902301F0902401EE
:1004E00020E030E0A901C701B6010E949C0B8111F8
:1004F00056C020E030E040E251E4C701B6010E945E
:10050000380B609321017093220180932301909313
:10051000240145C0C0902101D0902201E090230128
:10052000F090240120E030E040E151E4C701B60141
:100530000E949C0B18169CF120E030E040E85FE33D
:10054000C701B6010E94380B60932101709322010C
:10055000809323019093240122C0C0902101D09068
:100560002201E0902301F090240120E030E040E2FD
:1005700051E4C701B6010E949C0B882384F42DEC42
:100580003CEC4CEC5DE3C701B6010E94380B609374
:10059000210170932201809323019093240140EC68
:1005A00060E080E00E944900609121017091220189
:1005B00080912301909124010E94A700CF997BC0D4
:1005C0008FE39CE90197F1F700C00000CF9973C059
:1005D0001130F1F020F0123009F05EC03BC020E095
:1005E00030E040E251E4609121017091220180915C
:1005F0002301909124010E949C0B81114DC0109207
:10060000210110922201109223011092240144C072
:10061000C0902101D0902201E0902301F0902401AC
:1006200020E030E0A901C701B6010E94EB0C1816CA
:100630009CF520E030E040E85FE3C701B6010E948E
:10064000370B6093210170932201809323019093D3
:10065000240122C0C0902101D0902201E09023010A
:10066000F09024012DEC3CEC4CEC5DE3C701B601AD
:100670000E94EB0C181684F42DEC3CEC4CEC5DE382
:10068000C701B6010E94370B6093210170932201CC
:10069000809323019093240140EC60E080E00E946D
:1006A0004900609121017091220180912301909174
:1006B00024010E94A700CD99D4CE8FE39CE9019735
:1006C000F1F700C00000CD99CCCECD9BFECF12300B
:1006D00010F41F5FC6CE8091210190912201A0915C
:1006E0002301B09124018093650090936600A0934C
:1006F0006700B093680041E060E080E00E9449003C
:1007000040E860E080E00E9449008CE890E00E94B0
:100710006300F894409121015091220160912301DE
:100720007091240180E090E00E94AB0D789440EC41
:1007300060E080E00E944900609161007091620079
:1007400080916300909164000E94A70046EC60E0F5
:1007500080E00E9449008CEE90E00E94630080914E
:10076000610090916200A0916300B0916400809359
:100770001D0190931E01A0931F01B093200110E072
:100780008091FD0080FD13C0123039F0412F40549C
:1007900060E080E00E94490005C043EC60E080E03A
:1007A0000E9449008CED90E00E9463000FC040EC75
:1007B00060E080E00E94490060911D0170911E017F
:1007C00080911F01909120010E94A700CE9993C0B3
:1007D0008FE39CE90197F1F700C00000CE998BC030
:1007E000113039F120F0123009F076C04FC0C090BE
:1007F0001D01D0901E01E0901F01F090200120E02B
:1008000030E0A901C701B6010E949C0B811164C0B0
:1008100020E030E040E251E4C701B6010E94380B0D
:1008200060931D0170931E0180931F01909320011E
:1008300053C0C0901D01D0901E01E0901F01F090A8
:10084000200120E030E040E85FE3609121017091F9
:10085000220180912301909124010E94370BA7016E
:1008600096010E94EB0C1816BCF520E030E040E841
:100870005FE3C701B6010E94380B60931D017093BE
:100880001E0180931F019093200126C0C0901D017E
:10089000D0901E01E0901F01F090200120912101D5
:1008A000309122014091230150912401C701B601EA
:1008B0000E949C0B882384F42DEC3CEC4CEC5DE313
:1008C000C701B6010E94380B60931D0170931E0191
:1008D00080931F019093200140EC60E080E00E9433
:1008E000490060911D0170911E0180911F0190913E
:1008F00020010E94A700CF9962C08FE39CE9019775
:10090000F1F700C00000CF995AC0113021F0123029
:1009100009F046C023C0C0901D01D0901E01E09098
:100920001F01F090200120E030E040E85FE3C701C4
:10093000B6010E94EB0C88239CF120E030E040E8F7
:100940005FE3C701B6010E94370B60931D017093EE
:100950001E0180931F019093200122C0C0901D01B1
:10096000D0901E01E0901F01F09020012DEC3CEC96
:100970004CEC5DE3C701B6010E94EB0C181684F441
:100980002DEC3CEC4CEC5DE3C701B6010E94370B4B
:1009900060931D0170931E0180931F0190932001AD
:1009A00040EC60E080E00E94490060911D01709180
:1009B0001E0180911F01909120010E94A700CD99F6
:1009C000DFCE8FE39CE90197F1F700C00000CD99DD
:1009D000D7CECD9BFECF123010F41F5FD1CE8091C9
:1009E0001D0190911E01A0911F01B09120018093E3
:1009F000610090936200A0936300B093640041E0B3
:100A000060E080E00E94490040E860E080E00E94F1
:100A1000490080EA90E00E946300F89440911D0133
:100A200050911E0160911F017091200184E090E0BF
:100A30000E94AB0D789440EC60E080E00E94490099
:100A400020912501309126013695279536952795D9
:100A500036952795A5ECB0E20E94660D9295829599
:100A60008F7089279F708927805D8E832091250153
:100A7000309126013695279536952795ABE7B4E159
:100A80000E94660D969587954DEC849F912D1124BB
:100A9000969596959695990F292F220F220F920FD2
:100AA000891B805D8F832091250130912601ADEC5B
:100AB000BCEC0E94660D96958795969587959695C0
:100AC0008795849F912D1124969596959695990FCB
:100AD000292F220F220F920F891B805D888780911A
:100AE000250190912601849F912D1124969596952C
:100AF0009695990F292F220F220F920F891B805D47
:100B000089871A86CE0106960E94630046EC60E053
:100B100080E00E94490080EB90E00E94630010E0BA
:100B20008091FD0080FD0BC0412F405460E080E0CB
:100B30000E9449008CED90E00E94630009C040ECE7
:100B400060E080E00E944900CE0106960E946300AA
:100B5000CE9924C08FE39CE90197F1F700C0000013
:100B6000CE991CC0812F90E0E6E0F0E0EC0FFD1F75
:100B7000E80FF91F2081293340F4E6E0F0E0EC0FA4
:100B8000FD1FE80FF91F2F5F208340EC60E080E03D
:100B90000E944900CE0106960E946300CF9924C0AE
:100BA0008FE39CE90197F1F700C00000CF991CC0CA
:100BB000812F90E0E6E0F0E0EC0FFD1FE80FF91F59
:100BC0002081213340F0E6E0F0E0EC0FFD1FE80F5C
:100BD000F91F2150208340EC60E080E00E94490032
:100BE000CE0106960E946300CD999ACF8FE39CE9CF
:100BF0000197F1F700C00000CD9992CFCD9BFECFB9
:100C0000133010F41F5F8CCF4E8150E040535109D8
:100C100088EE93E0489F9001499F300D589F300D1A
:100C200011248F8194E6899F200D311D1124888520
:100C300090E0880F991FAC01440F551F440F551FBA
:100C4000840F951F820F931F2985820F911D805D50
:100C500094419093260180932501F8946091250199
:100C60007091260188E090E00E94B70D8FE19EE42C
:100C70000197F1F700C0000078948FE99FE0019799
:100C8000F1F700C0000041E060E080E00E94490010
:100C900040E860E080E00E94490084EB90E00E9420
:100CA000630060EC809111010E94EC008AE890E002
:100CB0000E94630063EC809128010E94EC0047ECE5
:100CC00060E080E00E94490081EC90E00E946300B7
:100CD0006BEC80912B010E94EC004DEC60E080E019
:100CE0000E9449008AE890E00E9463006EEC8091C7
:100CF0002C010E94EC0010E00F2EFDE2EF2EF02DF3
:100D000001E001C0102FCE9948C08FE39CE9019704
:100D1000F1F700C00000CE9940C0112319F0113046
:100D2000E1F520C0809128018D3240F490911101AD
:100D3000983120F4815F8093280109C01092280126
:100D400080911101883118F48F5F8093110160EC5C
:100D5000809111010E94EC0063EC809128010E94B7
:100D6000EC001BC080912C018D3220F4815F8093B8
:100D70002C0109C010922C0180912B01883118F4AC
:100D80008F5F80932B016BEC80912B010E94EC0014
:100D90006EEC80912C010E94EC00CF9948C08FE34B
:100DA0009CE90197F1F700C00000CF9940C01123E2
:100DB00019F01130E1F51EC0809128018F3020F02C
:100DC0008F50809328010BC0811109C080911101BF
:100DD000882329F0E092280181508093110160EC72
:100DE000809111010E94EC0063EC809128010E9427
:100DF000EC001DC080912C018F3020F08F5080932B
:100E00002C010BC0811109C080912B01882329F08E
:100E1000E0922C01815080932B016BEC80912B018F
:100E20000E94EC006EEC80912C010E94EC00CD99A8
:100E30006ACF8FE39CE90197F1F700C00000CD99DC
:100E400062CFCD9BFECF112309F45CCFF894609163
:100E500011018EE090E00E949A0D609128018DE0D2
:100E600090E00E949A0D60912B018CE090E00E942E
:100E70009A0D60912C018BE090E00E949A0D78947D
:100E80001092FC0019C041E060E080E00E9449003F
:100E900040E860E080E00E94490084EC90E00E941D
:100EA00063009FEF24E38CE0915020408040E1F705
:100EB00000C000001092FC002A960FB6F894DEBF26
:100EC0000FBECDBFDF91CF911F910F91FF90EF909B
:100ED000DF90CF90089511B88AE280B9089594EA1E
:100EE00096BF06B607FEFDCF91B1987F983011F0FE
:100EF000903179F483B984E886BF06B607FEFDCF4A
:100F000091B1987F983139F081E0903429F480E0F4
:100F1000089581E0089580E0089524EA34E844E9E2
:100F200026BF06B607FEFDCF91B1987F983011F02D
:100F30009031B1F783B936BF06B607FEFDCF91B148
:100F4000987F903211F0983529F446BF06B604FC1C
:100F5000FDCFE6CF089583B984E886BF06B607FEC5
:100F6000FDCF91B1987F81E0983209F480E0089537
:100F700084E986BF06B604FCFDCF08950E946F0782
:100F8000089584EC86BF06B607FEFDCF83B10895B1
:100F900084E886BF06B607FEFDCF83B108950E94A0
:100FA0006B078AE18A95F1F700C00895982F929512
:100FB0009F70292F220F920F990F891B08958F92EE
:100FC0009F92AF92BF92CF92DF92EF92FF920F93D8
:100FD0001F93CF93DF93EC016B015A01490180ED20
:100FE0000E948D0780E00E94AB070E94B80781ED48
:100FF0000E94BE070E94C1078F770E94D607F701A3
:1010000080830E94C1070E94D607F80180830E9456
:10101000C1070E94D607F40180830E94C1070E9485
:10102000C1070E94D607F50180830E94C1070E9474
:10103000D607F60180830E94C8070E94D6078883DE
:101040000E94B807DF91CF911F910F91FF90EF9011
:10105000DF90CF90BF90AF909F908F90089580E4E5
:1010600087B984E086B90895379A97B18F70907FD9
:10107000982B97B9369A349BFECF349A379864B13F
:1010800075B180E090E00E94390C08951F920F9294
:101090000FB60F9211242F938F939F9380910D0180
:1010A0008F5F80930D018091090190910A01019653
:1010B00090930A0180930901803D974091F48091BB
:1010C000FC00813051F48091FD008A3F20F48F5F55
:1010D0008093FD0002C01092FD0010920A01109250
:1010E000090180910D018D3351F580910801813006
:1010F00029F4809107018F5F809307018091060199
:10110000813029F4809105018F5F809305018091E2
:101110000201813049F48091000190910101019612
:10112000909301018093000180910C01813029F49A
:1011300080910B018F5F80930B0110920D019F91A5
:101140008F912F910F900FBE0F901F9018951ABA84
:101150008EEF8BBB8FEF84BB81BB87BBAC9AC098F3
:101160000E942F080E94CF0789B7816089BF83B78B
:10117000826083BF12BE8AE090E00E94860D8130BB
:1011800069F140E050E0BA0180E090E00E94AB0DD0
:1011900040E050E0BA0184E090E00E94AB0D60E0D6
:1011A00070E088E090E00E94B70D60E08EE090E093
:1011B0000E949A0D60E08DE090E00E949A0D60E040
:1011C0008CE090E00E949A0D60E08BE090E00E943D
:1011D0009A0D61E08AE090E00E949A0D84E090E030
:1011E0000E948E0D4B015C0160931D0170931E01E6
:1011F00080931F019093200180E090E00E948E0D6B
:101200006B017C0160932101709322018093230183
:101210009093240188E090E00E94940D9093260121
:10122000809325018EE090E00E94860D809311014D
:101230008DE090E00E94860D809328018CE090E084
:101240000E94860D80932B018BE090E00E94860D1A
:1012500080932C018092610090926200A0926300C2
:10126000B0926400C0926500D0926600E092670080
:10127000F0926800789441E060E080E00E944900CC
:1012800040E860E080E00E9449004CE060E080E0DF
:101290000E94490048E360E080E00E944900CD9947
:1012A00011C041E060E080E00E9449002FEF84E33C
:1012B0009CE0215080409040E1F700C00000CD9BB1
:1012C0000E941401CE993BC0CE9930C00F2EF7E199
:1012D000EF2EF1E0FF2EF02D08E111E027E231E0E2
:1012E0004AE251E066E171E089E291E00E94DF07A5
:1012F00040EC60E080E00E94490060EC80912701B2
:101300000E94EC008AE890E00E94630063EC809108
:1013100018010E94EC008AE890E00E94630066ECED
:10132000809117010E94EC00CE9BD0CF40EC60E092
:1013300080E00E94490083ED90E00E946300C9991B
:1013400009C080910601811105C0C0981092040166
:10135000C19A01C0C198CA9909C080910601811142
:1013600005C0C09810920401C29A01C0C29880E0E2
:101370000E9434086093190170931A0180931B0135
:1013800090931C0180910E0181110BC041E060E03F
:101390000E9449008EED90E00E94630081E08093FE
:1013A0000E018091020181111BC040EC60E00E949F
:1013B000490084EE90E00E94630046EC60E080E02B
:1013C0000E944900609121017091220180912301C6
:1013D000909124010E94A7008BEE90E00E94630090
:1013E00020E030E040E85FE36091190170911A015C
:1013F00080911B0190911C010E94380B20E030E08D
:1014000044E453E40E94370B20E030E040E251E432
:101410000E94EF0C20E030E84FE354E40E94A00B60
:10142000462F572F682F792F4093120150931301A5
:10143000609314017093150140E860E080E00E9421
:1014400049008EED90E00E94630046E860E080E095
:101450000E94490060911201709113018091140162
:10146000909115010E94A7008BEE90E00E9463000E
:1014700080910601811123C08091020181111FC05A
:10148000C0901201D0901301E0901401F09015016A
:1014900020E030E040E05FE36091210170912201A3
:1014A00080912301909124010E94370BA70196019E
:1014B0000E94EB0C18161CF481E0809308018091C7
:1014C00007018A3070F11092080110920701C09054
:1014D0001201D0901301E0901401F090150120E06A
:1014E00030E040E05FE36091210170912201809142
:1014F0002301909124010E94370BA70196010E94BD
:10150000EB0C181674F4C99B0CC0CA9B0AC0C09A95
:10151000109203011092600081E080930401809397
:101520000601809105018A3020F010920601109288
:101530000501C0901201D0901301E0901401F090C9
:10154000150120E030E040E05FE3609121017091FF
:10155000220180912301909124010E94380BA70160
:1015600096010E949C0B8823BCF48091020181119A
:1015700013C080910301811129C080916000811105
:1015800025C080910601811121C0C09810920401EC
:1015900081E08093020104C0809102018130B1F4A6
:1015A00040EC60E080E00E94490080EF90E00E9403
:1015B00063008091250190912601209100013091D6
:1015C00001016AEC821B930B0E947A008091250135
:1015D00090912601209100013091010128173907CF
:1015E00048F010920201109201011092000181E076
:1015F0008093030160911201709113018091140195
:1016000090911501C0901D01D0901E01E0901F0126
:10161000F0902001A70196010E949C0B882334F4CE
:1016200080910401813011F480930C0180910B01B1
:101630008E3108F434CE80910401813009F02FCE30
:101640002091120130911301409114015091150124
:10165000C701B6010E94EB0C18160CF020CEC09802
:101660001092040110920B0110920C0118CE5058E8
:10167000BB27AA270ED075C166D130F06BD120F000
:1016800031F49F3F11F41EF45BC10EF4E095E7FBCB
:1016900051C1E92F77D180F3BA1762077307840726
:1016A000950718F071F49EF58FC10EF4E0950B2E9E
:1016B000BA2FA02D0B01B90190010C01CA01A001A4
:1016C0001124FF27591B99F0593F50F4503E68F1FF
:1016D0001A16F040A22F232F342F4427585FF3CF40
:1016E000469537952795A795F0405395C9F77EF411
:1016F0001F16BA0B620B730B840BBAF09150A1F05A
:10170000FF0FBB1F661F771F881FC2F70EC0BA0FDF
:10171000621F731F841F48F4879577956795B79567
:10172000F7959E3F08F0B3CF9395880F08F099275F
:10173000EE0F979587950895D9D008F481E0089524
:101740000CD00FC107D140F0FED030F021F45F3F44
:1017500019F0F0C0511139C1F3C014D198F3992395
:10176000C9F35523B1F3951B550BBB27AA27621765
:101770007307840738F09F5F5F4F220F331F441FAA
:10178000AA1FA9F333D00E2E3AF0E0E830D09150E2
:101790005040E695001CCAF729D0FE2F27D0660FCF
:1017A000771F881FBB1F261737074807AB07B0E80E
:1017B00009F0BB0B802DBF01FF2793585F4F2AF024
:1017C0009E3F510568F0B6C000C15F3FECF3983E04
:1017D000DCF3869577956795B795F7959F5FC9F781
:1017E000880F911D9695879597F90895E1E0660F0A
:1017F000771F881FBB1F621773078407BA0720F083
:10180000621B730B840BBA0BEE1F88F7E0950895EB
:1018100004D06894B111D9C00895BCD088F09F5706
:1018200090F0B92F9927B751A0F0D1F0660F771F2C
:10183000881F991F1AF0BA95C9F712C0B13081F00C
:10184000C3D0B1E00895C0C0672F782F8827B85F54
:1018500039F0B93FCCF3869577956795B395D9F76D
:101860003EF490958095709561957F4F8F4F9F4F77
:101870000895E89409C097FB3EF490958095709583
:1018800061957F4F8F4F9F4F9923A9F0F92F96E9CC
:10189000BB279395F695879577956795B795F11141
:1018A000F8CFFAF4BB0F11F460FF1BC06F5F7F4FDE
:1018B0008F4F9F4F16C0882311F096E911C07723F0
:1018C00021F09EE8872F762F05C0662371F096E8F9
:1018D000862F70E060E02AF09A95660F771F881FC8
:1018E000DAF7880F9695879597F90895990F00086C
:1018F000550FAA0BE0E8FEEF16161706E807F907E2
:10190000C0F012161306E407F50798F0621B730B7C
:10191000840B950B39F40A2661F0232B242B252BFD
:1019200021F408950A2609F4A140A6958FEF811DA0
:10193000811D089597F99F6780E870E060E0089541
:101940009FEF80EC089500240A94161617061806D7
:101950000906089500240A941216130614060506B3
:101960000895092E0394000C11F4882352F0BB0F44
:1019700040F4BF2B11F460FF04C06F5F7F4F8F4FA7
:101980009F4F089557FD9058440F551F59F05F3FE2
:1019900071F04795880F97FB991F61F09F3F79F091
:1019A00087950895121613061406551FF2CF469513
:1019B000F1DF08C0161617061806991FF1CF869595
:1019C0007105610508940895E894BB276627772779
:1019D000CB0197F908958ADF08F48FEF08950BD0B3
:1019E000C0CFB1DF28F0B6DF18F0952309F0A2CF01
:1019F000A7CF1124EACFC6DFA0F3959FD1F3950FAF
:101A000050E0551F629FF001729FBB27F00DB11D82
:101A1000639FAA27F00DB11DAA1F649F6627B00D12
:101A2000A11D661F829F2227B00DA11D621F739FFB
:101A3000B00DA11D621F839FA00D611D221F749F09
:101A40003327A00D611D231F849F600D211D822F50
:101A5000762F6A2F11249F5750408AF0E1F0882397
:101A60004AF0EE0FFF1FBB1F661F771F881F9150A4
:101A70005040A9F79E3F510570F05CCFA6CF5F3F65
:101A8000ECF3983EDCF3869577956795B795F795D7
:101A9000E7959F5FC1F7FE2B880F911D969587955F
:101AA00097F9089597FB072E16F4009407D077FD59
:101AB00009D00E94720D07FC05D03EF490958195E7
:101AC0009F4F0895709561957F4F0895A29FB00133
:101AD000B39FC001A39F01D0B29F700D811D11243F
:101AE000911D0895AA1BBB1B51E107C0AA1FBB1F74
:101AF000A617B70710F0A61BB70B881F991F5A959A
:101B0000A9F780959095BC01CD010895E199FECF8C
:101B10009FBB8EBBE09A99278DB30895A6E1B0E0F4
:101B200044E050E00C94BF0DA8E1B0E042E050E08A
:101B30000C94BF0D262FE199FECF9FBB8EBBE09A80
:101B400001970DB2021631F02DBB0FB6F894E29A50
:101B5000E19A0FBE08950396272F0E949B0D0E94C5
:101B60009A0D252F0E949B0D242F0C949B0D0196FE
:101B7000272F0E949B0D0C949A0DDC01CB01FC01D8
:101B8000E199FECF06C0FFBBEEBBE09A31960DB2E5
:0E1B90000D9241505040B8F70895F894FFCFE1
:101B9E000100002040333373403030303000574561
:101BAE004C434F4D45212E2E00534554204C494E4B
:101BBE00452050524553535552453A0053455420F3
:101BCE004355544F464620505245535355524500A7
:101BDE005345542054494D45522044454C415900DB
:101BEE00534543005345542054494D494E47533AAB
:101BFE0000544F0057524F4E472050415353574FAA
:101C0E005244002020202020202020202000525549
:101C1E004E3A20005345543A202000204261720073
:0C1C2E0054494D45204C4546543A0000F6
:00000001FF
